{
  "_format": "hh-sol-artifact-1",
  "contractName": "NFTCertificate",
  "sourceName": "contracts/NFTCertificate.sol",
  "abi": [
    {
      "inputs": [],
      "stateMutability": "nonpayable",
      "type": "constructor"
    },
    {
      "inputs": [
        {
          "internalType": "address",
          "name": "sender",
          "type": "address"
        },
        {
          "internalType": "uint256",
          "name": "tokenId",
          "type": "uint256"
        },
        {
          "internalType": "address",
          "name": "owner",
          "type": "address"
        }
      ],
      "name": "ERC721IncorrectOwner",
      "type": "error"
    },
    {
      "inputs": [
        {
          "internalType": "address",
          "name": "operator",
          "type": "address"
        },
        {
          "internalType": "uint256",
          "name": "tokenId",
          "type": "uint256"
        }
      ],
      "name": "ERC721InsufficientApproval",
      "type": "error"
    },
    {
      "inputs": [
        {
          "internalType": "address",
          "name": "approver",
          "type": "address"
        }
      ],
      "name": "ERC721InvalidApprover",
      "type": "error"
    },
    {
      "inputs": [
        {
          "internalType": "address",
          "name": "operator",
          "type": "address"
        }
      ],
      "name": "ERC721InvalidOperator",
      "type": "error"
    },
    {
      "inputs": [
        {
          "internalType": "address",
          "name": "owner",
          "type": "address"
        }
      ],
      "name": "ERC721InvalidOwner",
      "type": "error"
    },
    {
      "inputs": [
        {
          "internalType": "address",
          "name": "receiver",
          "type": "address"
        }
      ],
      "name": "ERC721InvalidReceiver",
      "type": "error"
    },
    {
      "inputs": [
        {
          "internalType": "address",
          "name": "sender",
          "type": "address"
        }
      ],
      "name": "ERC721InvalidSender",
      "type": "error"
    },
    {
      "inputs": [
        {
          "internalType": "uint256",
          "name": "tokenId",
          "type": "uint256"
        }
      ],
      "name": "ERC721NonexistentToken",
      "type": "error"
    },
    {
      "inputs": [
        {
          "internalType": "address",
          "name": "owner",
          "type": "address"
        }
      ],
      "name": "OwnableInvalidOwner",
      "type": "error"
    },
    {
      "inputs": [
        {
          "internalType": "address",
          "name": "account",
          "type": "address"
        }
      ],
      "name": "OwnableUnauthorizedAccount",
      "type": "error"
    },
    {
      "anonymous": false,
      "inputs": [
        {
          "indexed": true,
          "internalType": "address",
          "name": "owner",
          "type": "address"
        },
        {
          "indexed": true,
          "internalType": "address",
          "name": "approved",
          "type": "address"
        },
        {
          "indexed": true,
          "internalType": "uint256",
          "name": "tokenId",
          "type": "uint256"
        }
      ],
      "name": "Approval",
      "type": "event"
    },
    {
      "anonymous": false,
      "inputs": [
        {
          "indexed": true,
          "internalType": "address",
          "name": "owner",
          "type": "address"
        },
        {
          "indexed": true,
          "internalType": "address",
          "name": "operator",
          "type": "address"
        },
        {
          "indexed": false,
          "internalType": "bool",
          "name": "approved",
          "type": "bool"
        }
      ],
      "name": "ApprovalForAll",
      "type": "event"
    },
    {
      "anonymous": false,
      "inputs": [
        {
          "indexed": false,
          "internalType": "uint256",
          "name": "_fromTokenId",
          "type": "uint256"
        },
        {
          "indexed": false,
          "internalType": "uint256",
          "name": "_toTokenId",
          "type": "uint256"
        }
      ],
      "name": "BatchMetadataUpdate",
      "type": "event"
    },
    {
      "anonymous": false,
      "inputs": [
        {
          "indexed": false,
          "internalType": "uint256",
          "name": "_tokenId",
          "type": "uint256"
        }
      ],
      "name": "MetadataUpdate",
      "type": "event"
    },
    {
      "anonymous": false,
      "inputs": [
        {
          "indexed": true,
          "internalType": "address",
          "name": "previousOwner",
          "type": "address"
        },
        {
          "indexed": true,
          "internalType": "address",
          "name": "newOwner",
          "type": "address"
        }
      ],
      "name": "OwnershipTransferred",
      "type": "event"
    },
    {
      "anonymous": false,
      "inputs": [
        {
          "indexed": true,
          "internalType": "address",
          "name": "from",
          "type": "address"
        },
        {
          "indexed": true,
          "internalType": "address",
          "name": "to",
          "type": "address"
        },
        {
          "indexed": true,
          "internalType": "uint256",
          "name": "tokenId",
          "type": "uint256"
        }
      ],
      "name": "Transfer",
      "type": "event"
    },
    {
      "inputs": [
        {
          "internalType": "address",
          "name": "to",
          "type": "address"
        },
        {
          "internalType": "uint256",
          "name": "tokenId",
          "type": "uint256"
        }
      ],
      "name": "approve",
      "outputs": [],
      "stateMutability": "nonpayable",
      "type": "function"
    },
    {
      "inputs": [
        {
          "internalType": "address",
          "name": "owner",
          "type": "address"
        }
      ],
      "name": "balanceOf",
      "outputs": [
        {
          "internalType": "uint256",
          "name": "",
          "type": "uint256"
        }
      ],
      "stateMutability": "view",
      "type": "function"
    },
    {
      "inputs": [
        {
          "internalType": "uint256",
          "name": "tokenId",
          "type": "uint256"
        }
      ],
      "name": "getApproved",
      "outputs": [
        {
          "internalType": "address",
          "name": "",
          "type": "address"
        }
      ],
      "stateMutability": "view",
      "type": "function"
    },
    {
      "inputs": [
        {
          "internalType": "address",
          "name": "owner",
          "type": "address"
        },
        {
          "internalType": "address",
          "name": "operator",
          "type": "address"
        }
      ],
      "name": "isApprovedForAll",
      "outputs": [
        {
          "internalType": "bool",
          "name": "",
          "type": "bool"
        }
      ],
      "stateMutability": "view",
      "type": "function"
    },
    {
      "inputs": [
        {
          "internalType": "address",
          "name": "student",
          "type": "address"
        },
        {
          "internalType": "string",
          "name": "tokenURI",
          "type": "string"
        },
        {
          "internalType": "string",
          "name": "courseId",
          "type": "string"
        }
      ],
      "name": "mintCertificate",
      "outputs": [
        {
          "internalType": "uint256",
          "name": "",
          "type": "uint256"
        }
      ],
      "stateMutability": "nonpayable",
      "type": "function"
    },
    {
      "inputs": [],
      "name": "name",
      "outputs": [
        {
          "internalType": "string",
          "name": "",
          "type": "string"
        }
      ],
      "stateMutability": "view",
      "type": "function"
    },
    {
      "inputs": [],
      "name": "owner",
      "outputs": [
        {
          "internalType": "address",
          "name": "",
          "type": "address"
        }
      ],
      "stateMutability": "view",
      "type": "function"
    },
    {
      "inputs": [
        {
          "internalType": "uint256",
          "name": "tokenId",
          "type": "uint256"
        }
      ],
      "name": "ownerOf",
      "outputs": [
        {
          "internalType": "address",
          "name": "",
          "type": "address"
        }
      ],
      "stateMutability": "view",
      "type": "function"
    },
    {
      "inputs": [],
      "name": "renounceOwnership",
      "outputs": [],
      "stateMutability": "nonpayable",
      "type": "function"
    },
    {
      "inputs": [
        {
          "internalType": "address",
          "name": "from",
          "type": "address"
        },
        {
          "internalType": "address",
          "name": "to",
          "type": "address"
        },
        {
          "internalType": "uint256",
          "name": "tokenId",
          "type": "uint256"
        }
      ],
      "name": "safeTransferFrom",
      "outputs": [],
      "stateMutability": "nonpayable",
      "type": "function"
    },
    {
      "inputs": [
        {
          "internalType": "address",
          "name": "from",
          "type": "address"
        },
        {
          "internalType": "address",
          "name": "to",
          "type": "address"
        },
        {
          "internalType": "uint256",
          "name": "tokenId",
          "type": "uint256"
        },
        {
          "internalType": "bytes",
          "name": "data",
          "type": "bytes"
        }
      ],
      "name": "safeTransferFrom",
      "outputs": [],
      "stateMutability": "nonpayable",
      "type": "function"
    },
    {
      "inputs": [
        {
          "internalType": "address",
          "name": "operator",
          "type": "address"
        },
        {
          "internalType": "bool",
          "name": "approved",
          "type": "bool"
        }
      ],
      "name": "setApprovalForAll",
      "outputs": [],
      "stateMutability": "nonpayable",
      "type": "function"
    },
    {
      "inputs": [
        {
          "internalType": "bytes4",
          "name": "interfaceId",
          "type": "bytes4"
        }
      ],
      "name": "supportsInterface",
      "outputs": [
        {
          "internalType": "bool",
          "name": "",
          "type": "bool"
        }
      ],
      "stateMutability": "view",
      "type": "function"
    },
    {
      "inputs": [],
      "name": "symbol",
      "outputs": [
        {
          "internalType": "string",
          "name": "",
          "type": "string"
        }
      ],
      "stateMutability": "view",
      "type": "function"
    },
    {
      "inputs": [
        {
          "internalType": "uint256",
          "name": "tokenId",
          "type": "uint256"
        }
      ],
      "name": "tokenURI",
      "outputs": [
        {
          "internalType": "string",
          "name": "",
          "type": "string"
        }
      ],
      "stateMutability": "view",
      "type": "function"
    },
    {
      "inputs": [
        {
          "internalType": "address",
          "name": "from",
          "type": "address"
        },
        {
          "internalType": "address",
          "name": "to",
          "type": "address"
        },
        {
          "internalType": "uint256",
          "name": "tokenId",
          "type": "uint256"
        }
      ],
      "name": "transferFrom",
      "outputs": [],
      "stateMutability": "nonpayable",
      "type": "function"
    },
    {
      "inputs": [
        {
          "internalType": "address",
          "name": "newOwner",
          "type": "address"
        }
      ],
      "name": "transferOwnership",
      "outputs": [],
      "stateMutability": "nonpayable",
      "type": "function"
    }
  ],
  "bytecode": "0x608060405234801561001057600080fd5b50336040518060400160405280601181526020017f436f7572736543657274696669636174650000000000000000000000000000008152506040518060400160405280600481526020017f4345525400000000000000000000000000000000000000000000000000000000815250816000908161008d919061043d565b50806001908161009d919061043d565b505050600073ffffffffffffffffffffffffffffffffffffffff168173ffffffffffffffffffffffffffffffffffffffff16036101125760006040517f1e4fbdf70000000000000000000000000000000000000000000000000000000081526004016101099190610550565b60405180910390fd5b6101218161012760201b60201c565b5061056b565b6000600760009054906101000a900473ffffffffffffffffffffffffffffffffffffffff16905081600760006101000a81548173ffffffffffffffffffffffffffffffffffffffff021916908373ffffffffffffffffffffffffffffffffffffffff1602179055508173ffffffffffffffffffffffffffffffffffffffff168173ffffffffffffffffffffffffffffffffffffffff167f8be0079c531659141344cd1fd0a4f28419497f9722a3daafe3b4186f6b6457e060405160405180910390a35050565b600081519050919050565b7f4e487b7100000000000000000000000000000000000000000000000000000000600052604160045260246000fd5b7f4e487b7100000000000000000000000000000000000000000000000000000000600052602260045260246000fd5b6000600282049050600182168061026e57607f821691505b60208210810361028157610280610227565b5b50919050565b60008190508160005260206000209050919050565b60006020601f8301049050919050565b600082821b905092915050565b6000600883026102e97fffffffffffffffffffffffffffffffffffffffffffffffffffffffffffffffff826102ac565b6102f386836102ac565b95508019841693508086168417925050509392505050565b6000819050919050565b6000819050919050565b600061033a6103356103308461030b565b610315565b61030b565b9050919050565b6000819050919050565b6103548361031f565b61036861036082610341565b8484546102b9565b825550505050565b600090565b61037d610370565b61038881848461034b565b505050565b5b818110156103ac576103a1600082610375565b60018101905061038e565b5050565b601f8211156103f1576103c281610287565b6103cb8461029c565b810160208510156103da578190505b6103ee6103e68561029c565b83018261038d565b50505b505050565b600082821c905092915050565b6000610414600019846008026103f6565b1980831691505092915050565b600061042d8383610403565b9150826002028217905092915050565b610446826101ed565b67ffffffffffffffff81111561045f5761045e6101f8565b5b6104698254610256565b6104748282856103b0565b600060209050601f8311600181146104a75760008415610495578287015190505b61049f8582610421565b865550610507565b601f1984166104b586610287565b60005b828110156104dd578489015182556001820191506020850194506020810190506104b8565b868310156104fa57848901516104f6601f891682610403565b8355505b6001600288020188555050505b505050505050565b600073ffffffffffffffffffffffffffffffffffffffff82169050919050565b600061053a8261050f565b9050919050565b61054a8161052f565b82525050565b60006020820190506105656000830184610541565b92915050565b6127bd8061057a6000396000f3fe608060405234801561001057600080fd5b506004361061010b5760003560e01c806370a08231116100a2578063a22cb46511610071578063a22cb465146102b8578063b88d4fde146102d4578063c87b56dd146102f0578063e985e9c514610320578063f2fde38b146103505761010b565b806370a0823114610242578063715018a6146102725780638da5cb5b1461027c57806395d89b411461029a5761010b565b806323b872dd116100de57806323b872dd146101aa57806342842e0e146101c65780636352211e146101e25780636b55243d146102125761010b565b806301ffc9a71461011057806306fdde0314610140578063081812fc1461015e578063095ea7b31461018e575b600080fd5b61012a60048036038101906101259190611b3d565b61036c565b6040516101379190611b85565b60405180910390f35b6101486103cd565b6040516101559190611c30565b60405180910390f35b61017860048036038101906101739190611c88565b61045f565b6040516101859190611cf6565b60405180910390f35b6101a860048036038101906101a39190611d3d565b61047b565b005b6101c460048036038101906101bf9190611d7d565b610491565b005b6101e060048036038101906101db9190611d7d565b610593565b005b6101fc60048036038101906101f79190611c88565b6105b3565b6040516102099190611cf6565b60405180910390f35b61022c60048036038101906102279190611f05565b6105c5565b6040516102399190611f9f565b60405180910390f35b61025c60048036038101906102579190611fba565b6106b0565b6040516102699190611f9f565b60405180910390f35b61027a61076a565b005b61028461077e565b6040516102919190611cf6565b60405180910390f35b6102a26107a8565b6040516102af9190611c30565b60405180910390f35b6102d260048036038101906102cd9190612013565b61083a565b005b6102ee60048036038101906102e991906120f4565b610850565b005b61030a60048036038101906103059190611c88565b610875565b6040516103179190611c30565b60405180910390f35b61033a60048036038101906103359190612177565b610988565b6040516103479190611b85565b60405180910390f35b61036a60048036038101906103659190611fba565b610a1c565b005b6000634906490660e01b7bffffffffffffffffffffffffffffffffffffffffffffffffffffffff1916827bffffffffffffffffffffffffffffffffffffffffffffffffffffffff191614806103c657506103c582610aa2565b5b9050919050565b6060600080546103dc906121e6565b80601f0160208091040260200160405190810160405280929190818152602001828054610408906121e6565b80156104555780601f1061042a57610100808354040283529160200191610455565b820191906000526020600020905b81548152906001019060200180831161043857829003601f168201915b5050505050905090565b600061046a82610b84565b5061047482610c0c565b9050919050565b61048d8282610488610c49565b610c51565b5050565b600073ffffffffffffffffffffffffffffffffffffffff168273ffffffffffffffffffffffffffffffffffffffff16036105035760006040517f64a0ae920000000000000000000000000000000000000000000000000000000081526004016104fa9190611cf6565b60405180910390fd5b60006105178383610512610c49565b610c63565b90508373ffffffffffffffffffffffffffffffffffffffff168173ffffffffffffffffffffffffffffffffffffffff161461058d578382826040517f64283d7b00000000000000000000000000000000000000000000000000000000815260040161058493929190612217565b60405180910390fd5b50505050565b6105ae83838360405180602001604052806000815250610850565b505050565b60006105be82610b84565b9050919050565b60006105cf610e7d565b6009826040516105df919061228a565b908152602001604051809103902060009054906101000a900460ff161561063b576040517f08c379a000000000000000000000000000000000000000000000000000000000815260040161063290612313565b60405180910390fd5b6008600081548092919061064e90612362565b9190505550600060085490506106648582610f04565b61066e8185610ffd565b6001600984604051610680919061228a565b908152602001604051809103902060006101000a81548160ff021916908315150217905550809150509392505050565b60008073ffffffffffffffffffffffffffffffffffffffff168273ffffffffffffffffffffffffffffffffffffffff16036107235760006040517f89c62b6400000000000000000000000000000000000000000000000000000000815260040161071a9190611cf6565b60405180910390fd5b600360008373ffffffffffffffffffffffffffffffffffffffff1673ffffffffffffffffffffffffffffffffffffffff168152602001908152602001600020549050919050565b610772610e7d565b61077c6000611059565b565b6000600760009054906101000a900473ffffffffffffffffffffffffffffffffffffffff16905090565b6060600180546107b7906121e6565b80601f01602080910402602001604051908101604052809291908181526020018280546107e3906121e6565b80156108305780601f1061080557610100808354040283529160200191610830565b820191906000526020600020905b81548152906001019060200180831161081357829003601f168201915b5050505050905090565b61084c610845610c49565b838361111f565b5050565b61085b848484610491565b61086f610866610c49565b8585858561128e565b50505050565b606061088082610b84565b5060006006600084815260200190815260200160002080546108a1906121e6565b80601f01602080910402602001604051908101604052809291908181526020018280546108cd906121e6565b801561091a5780601f106108ef5761010080835404028352916020019161091a565b820191906000526020600020905b8154815290600101906020018083116108fd57829003601f168201915b50505050509050600061092b61143f565b90506000815103610940578192505050610983565b60008251111561097557808260405160200161095d9291906123aa565b60405160208183030381529060405292505050610983565b61097e84611456565b925050505b919050565b6000600560008473ffffffffffffffffffffffffffffffffffffffff1673ffffffffffffffffffffffffffffffffffffffff16815260200190815260200160002060008373ffffffffffffffffffffffffffffffffffffffff1673ffffffffffffffffffffffffffffffffffffffff16815260200190815260200160002060009054906101000a900460ff16905092915050565b610a24610e7d565b600073ffffffffffffffffffffffffffffffffffffffff168173ffffffffffffffffffffffffffffffffffffffff1603610a965760006040517f1e4fbdf7000000000000000000000000000000000000000000000000000000008152600401610a8d9190611cf6565b60405180910390fd5b610a9f81611059565b50565b60007f80ac58cd000000000000000000000000000000000000000000000000000000007bffffffffffffffffffffffffffffffffffffffffffffffffffffffff1916827bffffffffffffffffffffffffffffffffffffffffffffffffffffffff19161480610b6d57507f5b5e139f000000000000000000000000000000000000000000000000000000007bffffffffffffffffffffffffffffffffffffffffffffffffffffffff1916827bffffffffffffffffffffffffffffffffffffffffffffffffffffffff1916145b80610b7d5750610b7c826114bf565b5b9050919050565b600080610b9083611529565b9050600073ffffffffffffffffffffffffffffffffffffffff168173ffffffffffffffffffffffffffffffffffffffff1603610c0357826040517f7e273289000000000000000000000000000000000000000000000000000000008152600401610bfa9190611f9f565b60405180910390fd5b80915050919050565b60006004600083815260200190815260200160002060009054906101000a900473ffffffffffffffffffffffffffffffffffffffff169050919050565b600033905090565b610c5e8383836001611566565b505050565b600080610c6f84611529565b9050600073ffffffffffffffffffffffffffffffffffffffff168373ffffffffffffffffffffffffffffffffffffffff1614610cb157610cb081848661172b565b5b600073ffffffffffffffffffffffffffffffffffffffff168173ffffffffffffffffffffffffffffffffffffffff1614610d4257610cf3600085600080611566565b6001600360008373ffffffffffffffffffffffffffffffffffffffff1673ffffffffffffffffffffffffffffffffffffffff168152602001908152602001600020600082825403925050819055505b600073ffffffffffffffffffffffffffffffffffffffff168573ffffffffffffffffffffffffffffffffffffffff1614610dc5576001600360008773ffffffffffffffffffffffffffffffffffffffff1673ffffffffffffffffffffffffffffffffffffffff168152602001908152602001600020600082825401925050819055505b846002600086815260200190815260200160002060006101000a81548173ffffffffffffffffffffffffffffffffffffffff021916908373ffffffffffffffffffffffffffffffffffffffff160217905550838573ffffffffffffffffffffffffffffffffffffffff168273ffffffffffffffffffffffffffffffffffffffff167fddf252ad1be2c89b69c2b068fc378daa952ba7f163c4a11628f55a4df523b3ef60405160405180910390a4809150509392505050565b610e85610c49565b73ffffffffffffffffffffffffffffffffffffffff16610ea361077e565b73ffffffffffffffffffffffffffffffffffffffff1614610f0257610ec6610c49565b6040517f118cdaa7000000000000000000000000000000000000000000000000000000008152600401610ef99190611cf6565b60405180910390fd5b565b600073ffffffffffffffffffffffffffffffffffffffff168273ffffffffffffffffffffffffffffffffffffffff1603610f765760006040517f64a0ae92000000000000000000000000000000000000000000000000000000008152600401610f6d9190611cf6565b60405180910390fd5b6000610f8483836000610c63565b9050600073ffffffffffffffffffffffffffffffffffffffff168173ffffffffffffffffffffffffffffffffffffffff1614610ff85760006040517f73c6ac6e000000000000000000000000000000000000000000000000000000008152600401610fef9190611cf6565b60405180910390fd5b505050565b8060066000848152602001908152602001600020908161101d919061257a565b507ff8e1a15aba9398e019f0b49df1a4fde98ee17ae345cb5f6b5e2c27f5033e8ce78260405161104d9190611f9f565b60405180910390a15050565b6000600760009054906101000a900473ffffffffffffffffffffffffffffffffffffffff16905081600760006101000a81548173ffffffffffffffffffffffffffffffffffffffff021916908373ffffffffffffffffffffffffffffffffffffffff1602179055508173ffffffffffffffffffffffffffffffffffffffff168173ffffffffffffffffffffffffffffffffffffffff167f8be0079c531659141344cd1fd0a4f28419497f9722a3daafe3b4186f6b6457e060405160405180910390a35050565b600073ffffffffffffffffffffffffffffffffffffffff168273ffffffffffffffffffffffffffffffffffffffff160361119057816040517f5b08ba180000000000000000000000000000000000000000000000000000000081526004016111879190611cf6565b60405180910390fd5b80600560008573ffffffffffffffffffffffffffffffffffffffff1673ffffffffffffffffffffffffffffffffffffffff16815260200190815260200160002060008473ffffffffffffffffffffffffffffffffffffffff1673ffffffffffffffffffffffffffffffffffffffff16815260200190815260200160002060006101000a81548160ff0219169083151502179055508173ffffffffffffffffffffffffffffffffffffffff168373ffffffffffffffffffffffffffffffffffffffff167f17307eab39ab6107e8899845ad3d59bd9653f200f220920489ca2b5937696c31836040516112819190611b85565b60405180910390a3505050565b60008373ffffffffffffffffffffffffffffffffffffffff163b1115611438578273ffffffffffffffffffffffffffffffffffffffff1663150b7a02868685856040518563ffffffff1660e01b81526004016112ed94939291906126a1565b6020604051808303816000875af192505050801561132957506040513d601f19601f820116820180604052508101906113269190612702565b60015b6113ad573d8060008114611359576040519150601f19603f3d011682016040523d82523d6000602084013e61135e565b606091505b5060008151036113a557836040517f64a0ae9200000000000000000000000000000000000000000000000000000000815260040161139c9190611cf6565b60405180910390fd5b805181602001fd5b63150b7a0260e01b7bffffffffffffffffffffffffffffffffffffffffffffffffffffffff1916817bffffffffffffffffffffffffffffffffffffffffffffffffffffffff19161461143657836040517f64a0ae9200000000000000000000000000000000000000000000000000000000815260040161142d9190611cf6565b60405180910390fd5b505b5050505050565b606060405180602001604052806000815250905090565b606061146182610b84565b50600061146c61143f565b9050600081511161148c57604051806020016040528060008152506114b7565b80611496846117ef565b6040516020016114a79291906123aa565b6040516020818303038152906040525b915050919050565b60007f01ffc9a7000000000000000000000000000000000000000000000000000000007bffffffffffffffffffffffffffffffffffffffffffffffffffffffff1916827bffffffffffffffffffffffffffffffffffffffffffffffffffffffff1916149050919050565b60006002600083815260200190815260200160002060009054906101000a900473ffffffffffffffffffffffffffffffffffffffff169050919050565b808061159f5750600073ffffffffffffffffffffffffffffffffffffffff168273ffffffffffffffffffffffffffffffffffffffff1614155b156116d35760006115af84610b84565b9050600073ffffffffffffffffffffffffffffffffffffffff168373ffffffffffffffffffffffffffffffffffffffff161415801561161a57508273ffffffffffffffffffffffffffffffffffffffff168173ffffffffffffffffffffffffffffffffffffffff1614155b801561162d575061162b8184610988565b155b1561166f57826040517fa9fbf51f0000000000000000000000000000000000000000000000000000000081526004016116669190611cf6565b60405180910390fd5b81156116d157838573ffffffffffffffffffffffffffffffffffffffff168273ffffffffffffffffffffffffffffffffffffffff167f8c5be1e5ebec7d5bd14f71427d1e84f3dd0314c0f7b2291e5b200ac8c7c3b92560405160405180910390a45b505b836004600085815260200190815260200160002060006101000a81548173ffffffffffffffffffffffffffffffffffffffff021916908373ffffffffffffffffffffffffffffffffffffffff16021790555050505050565b6117368383836118bd565b6117ea57600073ffffffffffffffffffffffffffffffffffffffff168373ffffffffffffffffffffffffffffffffffffffff16036117ab57806040517f7e2732890000000000000000000000000000000000000000000000000000000081526004016117a29190611f9f565b60405180910390fd5b81816040517f177e802f0000000000000000000000000000000000000000000000000000000081526004016117e192919061272f565b60405180910390fd5b505050565b6060600060016117fe8461197e565b01905060008167ffffffffffffffff81111561181d5761181c611dda565b5b6040519080825280601f01601f19166020018201604052801561184f5781602001600182028036833780820191505090505b509050600082602001820190505b6001156118b2578080600190039150507f3031323334353637383961626364656600000000000000000000000000000000600a86061a8153600a85816118a6576118a5612758565b5b0494506000850361185d575b819350505050919050565b60008073ffffffffffffffffffffffffffffffffffffffff168373ffffffffffffffffffffffffffffffffffffffff161415801561197557508273ffffffffffffffffffffffffffffffffffffffff168473ffffffffffffffffffffffffffffffffffffffff16148061193657506119358484610988565b5b8061197457508273ffffffffffffffffffffffffffffffffffffffff1661195c83610c0c565b73ffffffffffffffffffffffffffffffffffffffff16145b5b90509392505050565b600080600090507a184f03e93ff9f4daa797ed6e38ed64bf6a1f01000000000000000083106119dc577a184f03e93ff9f4daa797ed6e38ed64bf6a1f01000000000000000083816119d2576119d1612758565b5b0492506040810190505b6d04ee2d6d415b85acef81000000008310611a19576d04ee2d6d415b85acef81000000008381611a0f57611a0e612758565b5b0492506020810190505b662386f26fc100008310611a4857662386f26fc100008381611a3e57611a3d612758565b5b0492506010810190505b6305f5e1008310611a71576305f5e1008381611a6757611a66612758565b5b0492506008810190505b6127108310611a96576127108381611a8c57611a8b612758565b5b0492506004810190505b60648310611ab95760648381611aaf57611aae612758565b5b0492506002810190505b600a8310611ac8576001810190505b80915050919050565b6000604051905090565b600080fd5b600080fd5b60007fffffffff0000000000000000000000000000000000000000000000000000000082169050919050565b611b1a81611ae5565b8114611b2557600080fd5b50565b600081359050611b3781611b11565b92915050565b600060208284031215611b5357611b52611adb565b5b6000611b6184828501611b28565b91505092915050565b60008115159050919050565b611b7f81611b6a565b82525050565b6000602082019050611b9a6000830184611b76565b92915050565b600081519050919050565b600082825260208201905092915050565b60005b83811015611bda578082015181840152602081019050611bbf565b60008484015250505050565b6000601f19601f8301169050919050565b6000611c0282611ba0565b611c0c8185611bab565b9350611c1c818560208601611bbc565b611c2581611be6565b840191505092915050565b60006020820190508181036000830152611c4a8184611bf7565b905092915050565b6000819050919050565b611c6581611c52565b8114611c7057600080fd5b50565b600081359050611c8281611c5c565b92915050565b600060208284031215611c9e57611c9d611adb565b5b6000611cac84828501611c73565b91505092915050565b600073ffffffffffffffffffffffffffffffffffffffff82169050919050565b6000611ce082611cb5565b9050919050565b611cf081611cd5565b82525050565b6000602082019050611d0b6000830184611ce7565b92915050565b611d1a81611cd5565b8114611d2557600080fd5b50565b600081359050611d3781611d11565b92915050565b60008060408385031215611d5457611d53611adb565b5b6000611d6285828601611d28565b9250506020611d7385828601611c73565b9150509250929050565b600080600060608486031215611d9657611d95611adb565b5b6000611da486828701611d28565b9350506020611db586828701611d28565b9250506040611dc686828701611c73565b9150509250925092565b600080fd5b600080fd5b7f4e487b7100000000000000000000000000000000000000000000000000000000600052604160045260246000fd5b611e1282611be6565b810181811067ffffffffffffffff82111715611e3157611e30611dda565b5b80604052505050565b6000611e44611ad1565b9050611e508282611e09565b919050565b600067ffffffffffffffff821115611e7057611e6f611dda565b5b611e7982611be6565b9050602081019050919050565b82818337600083830152505050565b6000611ea8611ea384611e55565b611e3a565b905082815260208101848484011115611ec457611ec3611dd5565b5b611ecf848285611e86565b509392505050565b600082601f830112611eec57611eeb611dd0565b5b8135611efc848260208601611e95565b91505092915050565b600080600060608486031215611f1e57611f1d611adb565b5b6000611f2c86828701611d28565b935050602084013567ffffffffffffffff811115611f4d57611f4c611ae0565b5b611f5986828701611ed7565b925050604084013567ffffffffffffffff811115611f7a57611f79611ae0565b5b611f8686828701611ed7565b9150509250925092565b611f9981611c52565b82525050565b6000602082019050611fb46000830184611f90565b92915050565b600060208284031215611fd057611fcf611adb565b5b6000611fde84828501611d28565b91505092915050565b611ff081611b6a565b8114611ffb57600080fd5b50565b60008135905061200d81611fe7565b92915050565b6000806040838503121561202a57612029611adb565b5b600061203885828601611d28565b925050602061204985828601611ffe565b9150509250929050565b600067ffffffffffffffff82111561206e5761206d611dda565b5b61207782611be6565b9050602081019050919050565b600061209761209284612053565b611e3a565b9050828152602081018484840111156120b3576120b2611dd5565b5b6120be848285611e86565b509392505050565b600082601f8301126120db576120da611dd0565b5b81356120eb848260208601612084565b91505092915050565b6000806000806080858703121561210e5761210d611adb565b5b600061211c87828801611d28565b945050602061212d87828801611d28565b935050604061213e87828801611c73565b925050606085013567ffffffffffffffff81111561215f5761215e611ae0565b5b61216b878288016120c6565b91505092959194509250565b6000806040838503121561218e5761218d611adb565b5b600061219c85828601611d28565b92505060206121ad85828601611d28565b9150509250929050565b7f4e487b7100000000000000000000000000000000000000000000000000000000600052602260045260246000fd5b600060028204905060018216806121fe57607f821691505b602082108103612211576122106121b7565b5b50919050565b600060608201905061222c6000830186611ce7565b6122396020830185611f90565b6122466040830184611ce7565b949350505050565b600081905092915050565b600061226482611ba0565b61226e818561224e565b935061227e818560208601611bbc565b80840191505092915050565b60006122968284612259565b915081905092915050565b7f436572746966696361746520616c72656164792069737375656420666f72207460008201527f68697320636f7572736500000000000000000000000000000000000000000000602082015250565b60006122fd602a83611bab565b9150612308826122a1565b604082019050919050565b6000602082019050818103600083015261232c816122f0565b9050919050565b7f4e487b7100000000000000000000000000000000000000000000000000000000600052601160045260246000fd5b600061236d82611c52565b91507fffffffffffffffffffffffffffffffffffffffffffffffffffffffffffffffff820361239f5761239e612333565b5b600182019050919050565b60006123b68285612259565b91506123c28284612259565b91508190509392505050565b60008190508160005260206000209050919050565b60006020601f8301049050919050565b600082821b905092915050565b6000600883026124307fffffffffffffffffffffffffffffffffffffffffffffffffffffffffffffffff826123f3565b61243a86836123f3565b95508019841693508086168417925050509392505050565b6000819050919050565b600061247761247261246d84611c52565b612452565b611c52565b9050919050565b6000819050919050565b6124918361245c565b6124a561249d8261247e565b848454612400565b825550505050565b600090565b6124ba6124ad565b6124c5818484612488565b505050565b5b818110156124e9576124de6000826124b2565b6001810190506124cb565b5050565b601f82111561252e576124ff816123ce565b612508846123e3565b81016020851015612517578190505b61252b612523856123e3565b8301826124ca565b50505b505050565b600082821c905092915050565b600061255160001984600802612533565b1980831691505092915050565b600061256a8383612540565b9150826002028217905092915050565b61258382611ba0565b67ffffffffffffffff81111561259c5761259b611dda565b5b6125a682546121e6565b6125b18282856124ed565b600060209050601f8311600181146125e457600084156125d2578287015190505b6125dc858261255e565b865550612644565b601f1984166125f2866123ce565b60005b8281101561261a578489015182556001820191506020850194506020810190506125f5565b868310156126375784890151612633601f891682612540565b8355505b6001600288020188555050505b505050505050565b600081519050919050565b600082825260208201905092915050565b60006126738261264c565b61267d8185612657565b935061268d818560208601611bbc565b61269681611be6565b840191505092915050565b60006080820190506126b66000830187611ce7565b6126c36020830186611ce7565b6126d06040830185611f90565b81810360608301526126e28184612668565b905095945050505050565b6000815190506126fc81611b11565b92915050565b60006020828403121561271857612717611adb565b5b6000612726848285016126ed565b91505092915050565b60006040820190506127446000830185611ce7565b6127516020830184611f90565b9392505050565b7f4e487b7100000000000000000000000000000000000000000000000000000000600052601260045260246000fdfea2646970667358221220f736835795ef12a792df5c2fd1a192823e50f6ea5eb0529f0508e40742bb021564736f6c634300081c0033",
  "linkReferences": {},
  "deployedLinkReferences": {}
}